:100000000C9462000C948A000C948A000C948A0070
:100010000C948A000C948A000C948A000C948A0038
:100020000C948A000C948A000C948A000C948A0028
:100030000C948A000C948A000C948A000C948A0018
:100040000C9450020C948A000C94EA000C948A00E0
:100050000C948A000C948A000C948A000C948A00F8
:100060000C948A000C948A000000000024002700F1
:100070002A0000000000250028002B0000000000DE
:1000800023002600290004040404040404040202DA
:100090000202020203030303030301020408102007
:1000A0004080010204081020010204081020000012
:1000B0000007000201000003040600000000000029
:1000C0000000DF0111241FBECFEFD8E0DEBFCDBF9F
:1000D00011E0A0E0B1E0ECE0F7E002C005900D9285
:1000E000AA31B107D9F711E0AAE1B1E001C01D9230
:1000F000AC3DB107E1F710E0C4ECD0E004C02297BA
:10010000FE010E948003C23CD107C9F70E94E300B0
:100110000C9484030C940000EF92FF920F931F93B2
:10012000CF93DF937C018B01C0E0D0E00150104001
:1001300014C08EEB91E00E9490018823D1F38EEBE6
:1001400091E00E94A401F701EC0FFD1F808388233A
:1001500019F481E090E007C02196C017D1074CF355
:10016000CE0DDF1D1882DF91CF911F910F91FF906F
:10017000EF9008950F931F930AE111E0C80160E228
:1001800070E00E948C008EEB91E0B8010E94450265
:100190001F910F9108950F931F930EEB11E0C8016B
:1001A00040E855E260E070E00E9427018091110173
:1001B00061E00E94FA02C80160E071E00E9445021D
:1001C0001F910F9108950E94C0020E94CB000E94CF
:1001D000BA00FDCF1F920F920FB60F9211242F93EA
:1001E0003F934F935F936F937F938F939F93AF93BF
:1001F000BF93EF93FF934091C600E091BA01F09155
:10020000BB01CF01019660E870E00E941A039C01D7
:100210008091BC019091BD012817390739F0E65C47
:10022000FE4F40833093BB012093BA01FF91EF91C1
:10023000BF91AF919F918F917F916F915F914F91FE
:100240003F912F910F900FBE0F901F901895AF9276
:10025000BF92CF92DF92EF92FF920F931F93CF93B3
:10026000DF936C017A018B01DC011496AD90BC9098
:100270001597CB01BA0122E030E040E050E00E9447
:100280004F03205C3D4B404F5F4FCA01B901A801AD
:1002900097010E944F03C901DA010197A109B10931
:1002A000292F3A2F4B2F552747FD5A950196A11D0F
:1002B000B11DE5012883E601EE81FF818150808335
:1002C000EA85FB85208141E050E0CA010E8402C02E
:1002D000880F991F0A94E2F7282B2083EA85FB8573
:1002E0002081CA010F8402C0880F991F0A94E2F787
:1002F000282B2083EA85FB858081088802C0440F73
:10030000551F0A94E2F7842B8083DF91CF911F91D0
:100310000F91FF90EF90DF90CF90BF90AF90089536
:10032000DC011296ED91FC911397E058FF4F8191FB
:10033000919180589F4F20813181821B930B60E8FF
:1003400070E00E941A030895CF93DF93DC011296A8
:10035000ED91FC911397EF01CE57DF4F4881598102
:10036000E058FF4F80819181E058F0408417950755
:1003700019F42FEF3FEF0CC0E40FF51F2081CA01E5
:10038000019660E870E00E941A039983888330E048
:10039000C901DF91CF910895FC01A085B185218924
:1003A0008C9190E0022E02C0959587950A94E2F711
:1003B00080FFF6CF0484F585E02D6083089587E102
:1003C00091E09093BF018093BE018AE391E0909306
:1003D000C1018093C00185EC90E09093C3018093AC
:1003E000C20184EC90E09093C5018093C40180EC3D
:1003F00090E09093C7018093C60181EC90E09093C8
:10040000C9018093C80186EC90E09093CB01809362
:10041000CA0184E08093CC0183E08093CD0187E022
:100420008093CE0185E08093CF0108950F931F93B1
:10043000CF93DF938C01EB0109C02196D801ED9198
:10044000FC910190F081E02DC80109956881662337
:10045000A1F7DF91CF911F910F9108950F931F93F3
:100460008C01DC01ED91FC910190F081E02D6DE0BB
:100470000995D801ED91FC910190F081E02DC80122
:100480006AE009951F910F9108950F931F938C01B6
:100490000E941602C8010E942E021F910F9108951A
:1004A0001F920F920FB60F9211242F938F939F9349
:1004B000AF93BF938091D0019091D101A091D201CF
:1004C000B091D3010196A11DB11D8093D0019093ED
:1004D000D101A093D201B093D3018091D401909126
:1004E000D501A091D601B091D7018050904CAF4F6B
:1004F000BF4F8093D4019093D501A093D601B093C0
:10050000D70127C08091D4019091D501A091D60147
:10051000B091D70180589E43A040B0408093D40151
:100520009093D501A093D601B093D7018091D801C3
:100530009091D901A091DA01B091DB010196A11D42
:10054000B11D8093D8019093D901A093DA01B093A3
:10055000DB018091D4019091D501A091D601B09199
:10056000D70181589E43A040B04060F6BF91AF9143
:100570009F918F912F910F900FBE0F901F90189504
:10058000789484B5826084BD84B5816084BD85B56E
:10059000826085BD85B5816085BDEEE6F0E0808135
:1005A00081608083E1E8F0E08081826080838081E7
:1005B00081608083E0E8F0E0808181608083E1EB0E
:1005C000F0E0808184608083E0EBF0E080818160F6
:1005D0008083EAE7F0E080818460808380818260AC
:1005E0008083808181608083808180688083109295
:1005F000C1000895282F30E0C90186569F4FFC01A5
:1006000094912A573F4FF9018491882391F0E82F64
:10061000F0E0EE0FFF1FE859FF4FA591B49166235C
:1006200029F48C91909589238C9308958C91892B32
:100630008C93089597FB092E07260AD077FD04D0E6
:1006400049D006D000201AF4709561957F4F089527
:10065000F6F7909581959F4F0895A1E21A2EAA1B57
:10066000BB1BFD010DC0AA1FBB1FEE1FFF1FA21762
:10067000B307E407F50720F0A21BB30BE40BF50B5F
:10068000661F771F881F991F1A9469F760957095E8
:10069000809590959B01AC01BD01CF01089597FB1A
:1006A000092E05260ED057FD04D0D7DF0AD0001C36
:1006B00038F450954095309521953F4F4F4F5F4FFF
:1006C0000895F6F790958095709561957F4F8F4FBF
:1006D0009F4F0895AA1BBB1B51E107C0AA1FBB1F58
:1006E000A617B70710F0A61BB70B881F991F5A95BE
:1006F000A9F780959095BC01CD010895EE0FFF1FDD
:0C0700000590F491E02D0994F894FFCFCF
:10070C0068656C6C6F2070726F63657373696E676C
:0A071C00000D0000000000CC0100F9
:00000001FF
