:100000000C9464000C948C000C948C000C948C0068
:100010000C948C000C948C000C948C000C948C0030
:100020000C948C000C948C000C948C000C948C0020
:100030000C948C000C948C000C948C000C948C0010
:100040000C9474060C948C000C9462040C948C0038
:100050000C948C000C948C000C948C000C948C00F0
:100060000C948C000C948C000000000024002700ED
:100070002A0000000000250028002B0000000000DE
:1000800023002600290004040404040404040202DA
:100090000202020203030303030301020408102007
:1000A0004080010204081020010204081020000012
:1000B0000007000201000003040600000000000029
:1000C0000000D3029603570511241FBECFEFD8E0DE
:1000D000DEBFCDBF11E0A0E0B1E0EAE5F0E102C093
:1000E00005900D92AC30B107D9F711E0ACE0B1E06A
:1000F00001C01D92AD3CB107E1F710E0C8ECD0E0C3
:1001000004C02297FE010E942708C23CD107C9F70C
:100110000E945B040C942B080C9400002C982898E7
:1001200080910D01482F50E027E030E05C98CA0133
:10013000022E02C0959587950A94E2F780FF02C0CF
:10014000289A01C028985C9A215030408FEF2F3FA9
:10015000380761F72C9A0895249A579A549A209A4E
:1001600010920D010E948E005F980895EF92FF9209
:100170000F93DF93CF9300D0CDB7DEB79A838983F7
:100180007B01042F8CE091E00E94AC00E981FA81B0
:10019000F182E08202830130C1F480910D01817E01
:1001A00080930D018CE091E00E948E0083EA8093A1
:1001B000B0000093B1008FEF8093B4008093B30040
:1001C000539A5B9A239A2B9A16C00230A1F480911D
:1001D0000D018E7180930D018CE091E00E948E00E4
:1001E00083EA84BD8FEF88BD87BD8AB180668AB9F6
:1001F0008BB180668BB90F900F90CF91DF910F91EB
:10020000FF90EF9008950F931F938C01FC01808164
:100210009181689F9001699F300D789F300D112466
:1002200040E050E060E077E883E993E00E94F60761
:10023000F801238334834583568317821086118601
:1002400012861F910F910895FC018281813051F433
:1002500080910D01817E80930D018CE091E00E94E0
:100260008E000895823049F480910D018E71809343
:100270000D018CE091E00E948E0008958F929F9274
:10028000AF92BF92CF92DF92EF92FF920F931F93A4
:10029000CF93DF93062FE42EFC019280F1E09F16AE
:1002A00069F4F090B3001091B40064E0A62E52E01F
:1002B000B52E48E0D42E30E1C32E0FC082E0981650
:1002C00011F000E062C1F7B418B520E2A22EBB2401
:1002D000B39490E8D92E80E4C82E80900D01E82DCB
:1002E000F0E04A2D50E0CB2DD0E09E01242B352BA1
:1002F000C9018E239F238217930711F420E138C090
:10030000AD2DB0E09D012C2B3D2BC9018E239F23E9
:100310008217930711F420E32BC06C2D70E09B0132
:100320002A2B3B2BC9018E239F238217930711F49D
:1003300020E51EC09B01242B352BC9018E239F2352
:100340008217930711F420E713C04E235F23452B38
:1003500011F020E00DC0CE23DF23CD2B11F020E2E1
:1003600007C0AE23BF23AB2B11F420E601C020E46D
:10037000E1E0EE1631F4822F82958F7080FF13C07A
:100380001EC0F2E0EF16C1F4822F82958F7080FDBF
:100390000AC015C080599F4F282F2F7700E01FEF0C
:1003A000FF24FA94B3C0822F90E0013011F48096BC
:1003B000F3CF805A9F4FF0CF83E0E81631F4822FBD
:1003C00090E0013039F74096E7CFE4E0EE1611F007
:1003D00000E09CC0013009F04CC0203110F4205FD7
:1003E0002F77FFEFFF1629F4822F829583708330D9
:1003F00039F01F3F39F4822F82958370813011F4D8
:10040000205E2F77203111F02035C9F41F3F11F401
:1004100080E103C0812F82958F708F5F61E10E9420
:10042000B507092F903111F41FEF03C0192F129552
:10043000107FF12EF094003109F068C018C01F3F02
:1004400011F480E103C0812F82958F70805F61E19C
:100450000E94B507092F903111F41FEF03C0192F27
:100460001295107FF12EF094002309F04FC0205E0A
:100470004CC08FEFF81629F4822F8295837081305B
:1004800039F01F3F39F4822F82958370833011F445
:10049000205A2F77822F82958F7080FD02C02059BD
:1004A0002F77203111F02035C1F41F3F11F480E186
:1004B00003C0812F82958F70805F61E10E94B50734
:1004C000092F903111F41FEF03C0192F1295107FDF
:1004D000F12EF0940023D1F417C01F3F11F480E1F6
:1004E00003C0812F82958F708F5F61E10E94B507F5
:1004F000092F903111F41FEF03C0192F1295107FAF
:10050000F12EF094003111F4205A2F77E1E09E167D
:1005100029F4F092B3001093B40005C0F2E09F16E6
:1005200011F418BDF7BC4B2D4A293C2D3D29932FC2
:10053000942B9095982190930D01822F82958F7026
:100540008330B1F0843028F4813071F0823070F45F
:1005500009C0853081F0853060F0863079F08730D1
:1005600081F40BC09A290BC0942B09C09B2907C0AA
:10057000DB289D2904C0932B02C0CA289C29909394
:100580000D018CE091E00E948E00802FDF91CF91D1
:100590001F910F91FF90EF90DF90CF90BF90AF90A1
:1005A0009F908F90089508955F926F927F928F929F
:1005B0009F92AF92BF92CF92DF92EF92FF920F93F2
:1005C0001F93CF93DF93EC016B01542EA22EEB808F
:1005D000FC800D811E8123E0A216D1F416950795AB
:1005E000F794E794C801B70128EE33E040E050E00B
:1005F0000E94D40739014A01C801B70128EE33E04F
:1006000040E050E00E94D4077B018C01BB2440C035
:1006100084E0A81639F7E4E016950795F794E79477
:10062000EA95D1F774E0CC0CDD1C7A95E1F7DACFCE
:10063000CE01652D4A2D0E943E01B82EB301C401A2
:100640000E94E4068F819885A985BA858E0D9F1D2D
:10065000A01FB11F8F839887A987BA87885E9340B0
:10066000A040B04090F061E070E080E090E00E9437
:10067000E4068F819885A985BA85885E9340A0405D
:10068000B0408F839887A987BA870894C108D1089A
:10069000C114D10469F684E0A81699F52DC0CE01E5
:1006A000652D44E00E943E01B82EB301C4010E94B2
:1006B000E4068F819885A985BA858E0D9F1DA01FA0
:1006C000B11F8F839887A987BA87885E9340A0401F
:1006D000B04090F061E070E080E090E00E94E406BD
:1006E0008F819885A985BA85885E9340A040B040E7
:1006F0008F839887A987BA87BB2019F080E1B81645
:1007000071F6DF91CF911F910F91FF90EF90DF90E5
:10071000CF90BF90AF909F908F907F906F905F90A1
:100720000895FC0110828FEF818308958EE091E09F
:100730000E94910382E191E060E370E042E00E9458
:10074000B60008958091000190910101C19799F43C
:100750008091020161E00E94680782E191E062E31A
:1007600070E041E021E00E94D40281E090E09093AB
:100770000501809304018091000190910101C097CF
:1007800089F48091020160E00E94680782E191E0B3
:1007900062E370E042E021E00E94D4021092050181
:1007A000109204018091000190910101C29741F4DF
:1007B00060910401709105018FEA91E00E94640646
:1007C00008958FEA91E00E940805882309F451C03A
:1007D0008FEA91E00E941C0590931E0180931D01F9
:1007E0000A9709F046C010922A01109229011FC0F1
:1007F0008FEA91E00E9408058823C9F08FEA91E012
:100800000E941C059C0190931E0180931D018D3058
:100810009105A1F08091290190912A01FC01E15EEE
:10082000FE4F2083019690932A01809329018091A5
:10083000290190912A0118161906D4F680912901F0
:1008400090912A01019759F480911F01992787FD02
:10085000909590930101809300010E94A203109251
:100860002A011092290162E370E080E090E00E948A
:10087000E40608950F931F938FEA91E040E855E254
:1008800060E070E00E949F048091020161E00E949C
:1008900048078091020161E00E94680702E111E0CF
:1008A000C80166E970E00E940301C8010E942401AA
:1008B0001F910F9108950E940E070E943A040E9412
:1008C000E103FDCF1F920F920FB60F9211242F93C9
:1008D0003F934F935F936F937F938F939F93AF93C8
:1008E000BF93EF93FF934091C600E091AB01F0916D
:1008F000AC01CF01019660E870E00E94C1079C0145
:100900008091AD019091AE012817390739F0E55D6E
:10091000FE4F40833093AC012093AB01FF91EF91E8
:10092000BF91AF919F918F917F916F915F914F9107
:100930003F912F910F900FBE0F901F901895AF927F
:10094000BF92CF92DF92EF92FF920F931F93CF93BC
:10095000DF936C017A018B01DC011496AD90BC90A1
:100960001597CB01BA0122E030E040E050E00E9450
:10097000F607205C3D4B404F5F4FCA01B901A8010B
:1009800097010E94F607C901DA010197A109B1098F
:10099000292F3A2F4B2F552747FD5A950196A11D18
:1009A000B11DE5012883E601EE81FF81815080833E
:1009B000EA85FB85208141E050E0CA010E8402C037
:1009C000880F991F0A94E2F7282B2083EA85FB857C
:1009D0002081CA010F8402C0880F991F0A94E2F790
:1009E000282B2083EA85FB858081088802C0440F7C
:1009F000551F0A94E2F7842B8083DF91CF911F91DA
:100A00000F91FF90EF90DF90CF90BF90AF9008953F
:100A1000DC011296ED91FC911397E058FF4F819104
:100A2000919180589F4F20813181821B930B60E808
:100A300070E00E94C1070895CF93DF93DC01129606
:100A4000ED91FC911397EF01CE57DF4F488159810B
:100A5000E058FF4F80819181E058F040841795075E
:100A600019F42FEF3FEF0CC0E40FF51F2081CA01EE
:100A7000019660E870E00E94C1079983888330E0A6
:100A8000C901DF91CF910895FC01A085B18521892D
:100A90008C9190E0022E02C0959587950A94E2F71A
:100AA00080FFF6CF0484F585E02D608308958AE009
:100AB00091E09093B0018093AF018BE291E090932D
:100AC000B2018093B10185EC90E09093B4018093E2
:100AD000B30184EC90E09093B6018093B50180EC73
:100AE00090E09093B8018093B70181EC90E09093EF
:100AF000BA018093B90186EC90E09093BC01809399
:100B0000BB0184E08093BD0183E08093BE0187E058
:100B10008093BF0185E08093C00108950F931F93D8
:100B20008C01DC01ED91FC910190F081E02D6DE0F4
:100B30000995D801ED91FC910190F081E02DC8015B
:100B40006AE009951F910F9108952F923F924F925D
:100B50005F926F927F928F929F92AF92BF92CF924D
:100B6000DF92EF92FF920F931F93DF93CF93CDB756
:100B7000DEB7A0970FB6F894DEBF0FBECDBF1C0145
:100B80006A017B01411551056105710549F4DC01DC
:100B9000ED91FC910190F081E02D60E3099554C046
:100BA000882499245401422E55246624772401E098
:100BB00010E00C0F1D1F080D191DC701B601A30180
:100BC00092010E94D407F80160830894811C911C53
:100BD000A11CB11CC701B601A30192010E94D40758
:100BE000C901DA016C017D01C114D104E104F104F1
:100BF000F1F681E0E82EF12CEC0EFD1EE80CF91C5C
:100C00003E010894611C711CD501C4010197A10922
:100C1000B1096C01C818D90814C0F601EE0DFF1D0A
:100C200060816A3010F4605D01C0695CD101ED91B2
:100C3000FC910190F081E02DC10109950894E10833
:100C4000F1086E147F0449F7A0960FB6F894DEBF42
:100C50000FBECDBFCF91DF911F910F91FF90EF900D
:100C6000DF90CF90BF90AF909F908F907F906F90CC
:100C70005F904F903F902F900895EF92FF920F93C7
:100C80001F93CF93DF93EC017A018B0177FF0FC0A5
:100C9000E881F9810190F081E02D6DE209951095D0
:100CA0000095F094E094E11CF11C011D111DCE0192
:100CB000B801A7012AE00E94A505DF91CF911F91FD
:100CC0000F91FF90EF9008950F931F938C01AB014C
:100CD000662757FD6095762F0E943D06C8010E9449
:100CE0008E051F910F9108951F920F920FB60F92CC
:100CF00011242F938F939F93AF93BF938091C10142
:100D00009091C201A091C301B091C4010196A11DAF
:100D1000B11D8093C1019093C201A093C301B09310
:100D2000C4018091C5019091C601A091C701B09105
:100D3000C8018050904CAF4FBF4F8093C501909336
:100D4000C601A093C701B093C80127C08091C50117
:100D50009091C601A091C701B091C80180589E43EF
:100D6000A040B0408093C5019093C601A093C701F5
:100D7000B093C8018091C9019091CA01A091CB01A3
:100D8000B091CC010196A11DB11D8093C901909332
:100D9000CA01A093CB01B093CC018091C501909181
:100DA000C601A091C701B091C80181589E43A040DF
:100DB000B04060F6BF91AF919F918F912F910F90AE
:100DC0000FBE0F901F901895EF92FF920F931F93F5
:100DD0007B018C018FB7F8944091C9015091CA01F1
:100DE0006091CB017091CC018FBF2FB7F8948091A7
:100DF000C9019091CA01A091CB01B091CC012FBF44
:100E0000841B950BA60BB70BE816F9060A071B0700
:100E100060F71F910F91FF90EF900895789484B53B
:100E2000826084BD84B5816084BD85B5826085BDE6
:100E300085B5816085BDEEE6F0E0808181608083CC
:100E4000E1E8F0E08081826080838081816080833E
:100E5000E0E8F0E0808181608083E1EBF0E0808178
:100E600084608083E0EBF0E0808181608083EAE74A
:100E7000F0E08081846080838081826080838081D3
:100E8000816080838081806880831092C100089592
:100E9000282F30E0C90186569F4FFC0194912A57B4
:100EA0003F4FF9018491882391F0E82FF0E0EE0F95
:100EB000FF1FE859FF4FA591B491662329F48C9147
:100EC000909589238C9308958C91892B8C93089508
:100ED000482F50E0CA0182559F4FFC012491CA015E
:100EE00086569F4FFC0194914A575F4FFA01349107
:100EF0003323D1F1222331F1233021F4809180007A
:100F00008F7705C0243031F4809180008F7D8093ED
:100F1000800018C0213019F484B58F7704C02230C6
:100F200021F484B58F7D84BD0DC0263021F48091DD
:100F3000B0008F7705C0273029F48091B0008F7DF5
:100F40008093B000E32FF0E0EE0FFF1FEE58FF4F4D
:100F5000A591B491662329F48C91909589238C9363
:100F600008958C91892B8C930895991B79E004C086
:100F7000991F961708F0961B881F7A95C9F78095D8
:100F8000089597FB092E07260AD077FD04D049D093
:100F900006D000201AF4709561957F4F0895F6F7FA
:100FA000909581959F4F0895A1E21A2EAA1BBB1B15
:100FB000FD010DC0AA1FBB1FEE1FFF1FA217B30725
:100FC000E407F50720F0A21BB30BE40BF50B661F3B
:100FD000771F881F991F1A9469F7609570958095FF
:100FE00090959B01AC01BD01CF01089597FB092E9F
:100FF00005260ED057FD04D0D7DF0AD0001C38F4E8
:1010000050954095309521953F4F4F4F5F4F089534
:10101000F6F790958095709561957F4F8F4F9F4F14
:101020000895AA1BBB1B51E107C0AA1FBB1FA6172F
:10103000B70710F0A61BB70B881F991F5A95A9F781
:1010400080959095BC01CD010895EE0FFF1F05908E
:0A105000F491E02D0994F894FFCF0D
:0C105A00FFFF0D00010000000000440535
:00000001FF
