:100000000C9464000C948C000C948C000C948C0068
:100010000C948C000C948C000C948C000C948C0030
:100020000C948C000C948C000C948C000C948C0020
:100030000C948C000C948C000C948C000C948C0010
:100040000C94F8050C948C000C94CE040C948C0049
:100050000C948C000C948C000C948C000C948C00F0
:100060000C948C000C948C000000000024002700ED
:100070002A0000000000250028002B0000000000DE
:1000800023002600290004040404040404040202DA
:100090000202020203030303030301020408102007
:1000A0004080010204081020010204081020000012
:1000B0000007000201000003040600000000000029
:1000C0000000D3025104870511241FBECFEFD4E0F6
:1000D000DEBFCDBF11E0A0E0B1E0E0EAFFE002C08A
:1000E00005900D92A832B107D9F711E0A8E2B1E06E
:1000F00001C01D92AD3DB107E1F710E0C8ECD0E0C2
:1001000004C02297FE010E94CA07C23CD107C9F76A
:100110000E94C7040C94CE070C9400002C982898D9
:1001200080912901482F50E027E030E05C98CA0117
:10013000022E02C0959587950A94E2F780FF02C0CF
:10014000289A01C028985C9A215030408FEF2F3FA9
:10015000380761F72C9A0895249A579A549A209A4E
:10016000109229010E948E005F980895EF92FF92ED
:100170000F93DF93CF9300D0CDB7DEB79A838983F7
:100180007B01042F88E291E00E94AC00E981FA81B2
:10019000F182E08202830130C1F480912901817EE5
:1001A0008093290188E291E00E948E0083EA809387
:1001B000B0000093B1008FEF8093B4008093B30040
:1001C000539A5B9A239A2B9A16C00230A1F480911D
:1001D00029018E718093290188E291E00E948E00AE
:1001E00083EA84BD8FEF88BD87BD8AB180668AB9F6
:1001F0008BB180668BB90F900F90CF91DF910F91EB
:10020000FF90EF9008950F931F938C01FC01808164
:100210009181689F9001699F300D789F300D112466
:1002200040E050E060E077E883E993E00E949907BE
:10023000F801238334834583568317821086118601
:1002400012861F910F910895FC018281813051F433
:1002500080912901817E8093290188E291E00E94AA
:100260008E000895823049F4809129018E71809327
:10027000290188E291E00E948E0008958F929F925A
:10028000AF92BF92CF92DF92EF92FF920F931F93A4
:10029000CF93DF93062FE42EFC019280F1E09F16AE
:1002A00069F4F090B3001091B40064E0A62E52E01F
:1002B000B52E48E0D42E30E1C32E0FC082E0981650
:1002C00011F000E062C1F7B418B520E2A22EBB2401
:1002D000B39490E8D92E80E4C82E80902901E82DAF
:1002E000F0E04A2D50E0CB2DD0E09E01242B352BA1
:1002F000C9018E239F238217930711F420E138C090
:10030000AD2DB0E09D012C2B3D2BC9018E239F23E9
:100310008217930711F420E32BC06C2D70E09B0132
:100320002A2B3B2BC9018E239F238217930711F49D
:1003300020E51EC09B01242B352BC9018E239F2352
:100340008217930711F420E713C04E235F23452B38
:1003500011F020E00DC0CE23DF23CD2B11F020E2E1
:1003600007C0AE23BF23AB2B11F420E601C020E46D
:10037000E1E0EE1631F4822F82958F7080FF13C07A
:100380001EC0F2E0EF16C1F4822F82958F7080FDBF
:100390000AC015C080599F4F282F2F7700E01FEF0C
:1003A000FF24FA94B3C0822F90E0013011F48096BC
:1003B000F3CF805A9F4FF0CF83E0E81631F4822FBD
:1003C00090E0013039F74096E7CFE4E0EE1611F007
:1003D00000E09CC0013009F04CC0203110F4205FD7
:1003E0002F77FFEFFF1629F4822F829583708330D9
:1003F00039F01F3F39F4822F82958370813011F4D8
:10040000205E2F77203111F02035C9F41F3F11F401
:1004100080E103C0812F82958F708F5F61E10E9420
:100420005807092F903111F41FEF03C0192F1295AF
:10043000107FF12EF094003109F068C018C01F3F02
:1004400011F480E103C0812F82958F70805F61E19C
:100450000E945807092F903111F41FEF03C0192F84
:100460001295107FF12EF094002309F04FC0205E0A
:100470004CC08FEFF81629F4822F8295837081305B
:1004800039F01F3F39F4822F82958370833011F445
:10049000205A2F77822F82958F7080FD02C02059BD
:1004A0002F77203111F02035C1F41F3F11F480E186
:1004B00003C0812F82958F70805F61E10E94580791
:1004C000092F903111F41FEF03C0192F1295107FDF
:1004D000F12EF0940023D1F417C01F3F11F480E1F6
:1004E00003C0812F82958F708F5F61E10E94580752
:1004F000092F903111F41FEF03C0192F1295107FAF
:10050000F12EF094003111F4205A2F77E1E09E167D
:1005100029F4F092B3001093B40005C0F2E09F16E6
:1005200011F418BDF7BC4B2D4A293C2D3D29932FC2
:10053000942B9095982190932901822F82958F700A
:100540008330B1F0843028F4813071F0823070F45F
:1005500009C0853081F0853060F0863079F08730D1
:1005600081F40BC09A290BC0942B09C09B2907C0AA
:10057000DB289D2904C0932B02C0CA289C29909394
:10058000290188E291E00E948E00802FDF91CF91B7
:100590001F910F91FF90EF90DF90CF90BF90AF90A1
:1005A0009F908F90089508955F926F927F928F929F
:1005B0009F92AF92BF92CF92DF92EF92FF920F93F2
:1005C0001F93CF93DF93EC016B01542EA22EEB808F
:1005D000FC800D811E8123E0A216D1F416950795AB
:1005E000F794E794C801B70128EE33E040E050E00B
:1005F0000E94770739014A01C801B70128EE33E0AC
:1006000040E050E00E9477077B018C01BB2440C092
:1006100084E0A81639F7E4E016950795F794E79477
:10062000EA95D1F774E0CC0CDD1C7A95E1F7DACFCE
:10063000CE01652D4A2D0E943E01B82EB301C401A2
:100640000E9468068F819885A985BA858E0D9F1DA9
:10065000A01FB11F8F839887A987BA87885E9340B0
:10066000A040B04090F061E070E080E090E00E9437
:1006700068068F819885A985BA85885E9340A040D9
:10068000B0408F839887A987BA870894C108D1089A
:10069000C114D10469F684E0A81699F52DC0CE01E5
:1006A000652D44E00E943E01B82EB301C4010E94B2
:1006B00068068F819885A985BA858E0D9F1DA01F1C
:1006C000B11F8F839887A987BA87885E9340A0401F
:1006D000B04090F061E070E080E090E00E94680639
:1006E0008F819885A985BA85885E9340A040B040E7
:1006F0008F839887A987BA87BB2019F080E1B81645
:1007000071F6DF91CF911F910F91FF90EF90DF90E5
:10071000CF90BF90AF909F908F907F906F905F90A1
:100720000895FC0110828FEF81830895EF92FF926C
:100730000F931F93CF93DF93EC019B0177FF03C0CF
:1007400020E030E005C0653B710514F024EB30E09B
:100750002983EA806B8170E06E197109882777FD23
:100760008095982F982F872F762F662730E040E0CE
:1007700050E00E94390724EB30E040E050E00E9456
:100780009907FF2400E010E0102F0F2DFE2CEE241F
:10079000E20EF31E041F151FC801B70128E030E068
:1007A00040E050E00E9499078881893029F4309315
:1007B00089002093880006C08A3021F430938B0092
:1007C00020938A00DF91CF911F910F91FF90EF90BE
:1007D0000895CF93DF93EC01FB01CB0109970297BA
:1007E00010F080E054C0CA0160E170E00E9464072C
:1007F0006A83C90160E170E00E9464076B83E8834B
:100800008FEF89838E2F60E00E94EC06888161E083
:100810000E94CC0680912A01882311F580912B013A
:100820008823F1F42FB7F89482E0809380008AE166
:100830008093810088EB9BE09093890080938800EF
:1008400090938B0080938A0080E49CE990938700CA
:100850008093860080916F00887F80936F002FBF08
:100860008881893041F481E080932A018091800061
:100870008F73806809C08A3049F481E080932B012E
:10088000809180008F7C80628093800081E0DF9186
:10089000CF91089540E252E020E639E00E94E9035A
:1008A00008958CE291E00E94910380E391E060E37F
:1008B00070E042E00E94B6000895EF92FF920F931D
:1008C0001F930FEB11E0C80160E071E00E94BE05CC
:1008D0008CE2E82E81E0F82EC7016AE570E00E9404
:1008E000960368E873E180E090E00E946806C80122
:1008F00065E071E00E94BE05C70162E370E00E94FE
:10090000960368E873E180E090E00E94680680E367
:1009100091E065E070E041E021E00E94D40264EFE4
:1009200071E080E090E00E946806C8016AE071E032
:100930000E94ED05C8016FE071E00E94ED051F9176
:100940000F91FF90EF9008950F931F930FEB11E01D
:10095000C80140E855E260E070E00E940B05C80164
:1009600064E171E00E94ED0500E311E0C80166E971
:1009700070E00E940301C8010E9424018CE291E012
:100980006AE070E00E944A041F910F9108950E944E
:1009900092060E94A4040E945D04FDCF1F920F9254
:1009A0000FB60F9211242F933F934F935F936F9342
:1009B0007F938F939F93AF93BF93EF93FF93409158
:1009C000C600E091BB01F091BC01CF01019660E847
:1009D00070E00E9464079C018091BD019091BE016E
:1009E0002817390739F0E55CFE4F40833093BC018E
:1009F0002093BB01FF91EF91BF91AF919F918F9198
:100A00007F916F915F914F913F912F910F900FBE0A
:100A10000F901F901895AF92BF92CF92DF92EF92F6
:100A2000FF920F931F93CF93DF936C017A018B0199
:100A3000DC011496AD90BC901597CB01BA0122E071
:100A400030E040E050E00E949907205C3D4B404F71
:100A50005F4FCA01B901A80197010E949907C90116
:100A6000DA010197A109B109292F3A2F4B2F5527F8
:100A700047FD5A950196A11DB11DE5012883E601A8
:100A8000EE81FF8181508083EA85FB85208141E0F2
:100A900050E0CA010E8402C0880F991F0A94E2F741
:100AA000282B2083EA85FB852081CA010F8402C0A0
:100AB000880F991F0A94E2F7282B2083EA85FB858B
:100AC0008081088802C0440F551F0A94E2F7842BE6
:100AD0008083DF91CF911F910F91FF90EF90DF9076
:100AE000CF90BF90AF900895FC01A085B18521897A
:100AF0008C9190E0022E02C0959587950A94E2F7BA
:100B000080FFF6CF0484F585E02D6083089586E2AA
:100B100091E09093C0018093BF018BE391E09093AB
:100B2000C2018093C10185EC90E09093C401809351
:100B3000C30184EC90E09093C6018093C50180ECE2
:100B400090E09093C8018093C70181EC90E090936E
:100B5000CA018093C90186EC90E09093CC01809308
:100B6000CB0184E08093CD0183E08093CE0187E0C8
:100B70008093CF0185E08093D00108950F931F9358
:100B8000CF93DF938C01EB0109C02196D801ED9141
:100B9000FC910190F081E02DC801099568816623E0
:100BA000A1F7DF91CF911F910F9108950F931F939C
:100BB0008C01DC01ED91FC910190F081E02D6DE064
:100BC0000995D801ED91FC910190F081E02DC801CB
:100BD0006AE009951F910F9108950F931F938C015F
:100BE0000E94BE05C8010E94D6051F910F9108956D
:100BF0001F920F920FB60F9211242F938F939F93F2
:100C0000AF93BF938091D1019091D201A091D30174
:100C1000B091D4010196A11DB11D8093D101909393
:100C2000D201A093D301B093D4018091D5019091CA
:100C3000D601A091D701B091D8018050904CAF4F10
:100C4000BF4F8093D5019093D601A093D701B09365
:100C5000D80127C08091D5019091D601A091D701EC
:100C6000B091D80180589E43A040B0408093D501F8
:100C70009093D601A093D701B093D8018091D90168
:100C80009091DA01A091DB01B091DC010196A11DE8
:100C9000B11D8093D9019093DA01A093DB01B09349
:100CA000DC018091D5019091D601A091D701B0913E
:100CB000D80181589E43A040B04060F6BF91AF91EB
:100CC0009F918F912F910F900FBE0F901F901895AD
:100CD000EF92FF920F931F937B018C018FB7F894D3
:100CE0004091D9015091DA016091DB017091DC01F2
:100CF0008FBF2FB7F8948091D9019091DA01A0911C
:100D0000DB01B091DC012FBF841B950BA60BB70B49
:100D1000E816F9060A071B0760F71F910F91FF906D
:100D2000EF900895789484B5826084BD84B5816025
:100D300084BD85B5826085BD85B5816085BDEEE6E3
:100D4000F0E0808181608083E1E8F0E08081826072
:100D50008083808181608083E0E8F0E08081816031
:100D60008083E1EBF0E0808184608083E0EBF0E061
:100D7000808181608083EAE7F0E080818460808305
:100D800080818260808380818160808380818068AF
:100D900080831092C1000895282F30E0C901865643
:100DA0009F4FFC0194912A573F4FF901849188236A
:100DB00091F0E82FF0E0EE0FFF1FE859FF4FA591EB
:100DC000B491662329F48C91909589238C9308958E
:100DD0008C91892B8C930895482F50E0CA0182553D
:100DE0009F4FFC012491CA0186569F4FFC019491AC
:100DF0004A575F4FFA0134913323D1F1222331F165
:100E0000233021F4809180008F7705C0243031F4A5
:100E1000809180008F7D8093800018C0213019F46C
:100E200084B58F7704C0223021F484B58F7D84BDD2
:100E30000DC0263021F48091B0008F7705C0273097
:100E400029F48091B0008F7D8093B000E32FF0E013
:100E5000EE0FFF1FEE58FF4FA591B491662329F4C2
:100E60008C91909589238C9308958C91892B8C93E8
:100E70000895629FD001739FF001829FE00DF11DE4
:100E8000649FE00DF11D929FF00D839FF00D749F04
:100E9000F00D659FF00D9927729FB00DE11DF91FB0
:100EA000639FB00DE11DF91FBD01CF01112408950D
:100EB000991B79E004C0991F961708F0961B881FAC
:100EC0007A95C9F78095089597FB092E07260AD0D1
:100ED00077FD04D049D006D000201AF470956195B2
:100EE0007F4F0895F6F7909581959F4F0895A1E261
:100EF0001A2EAA1BBB1BFD010DC0AA1FBB1FEE1F94
:100F0000FF1FA217B307E407F50720F0A21BB30BDE
:100F1000E40BF50B661F771F881F991F1A9469F75A
:100F200060957095809590959B01AC01BD01CF01B6
:100F3000089597FB092E05260ED057FD04D0D7DF64
:100F40000AD0001C38F450954095309521953F4FBC
:100F50004F4F5F4F0895F6F7909580957095619586
:100F60007F4F8F4F9F4F0895AA1BBB1B51E107C0B6
:100F7000AA1FBB1FA617B70710F0A61BB70B881F29
:100F8000991F5A95A9F780959095BC01CD010895B8
:100F9000EE0FFF1F0590F491E02D0994F894FFCF18
:100FA0007469636B00746F636B006261636B006EE6
:100FB000657874005374657070657220746573741D
:080FC00021000000000074058F
:00000001FF
