:100000000C9462000C948A000C948A000C948A0070
:100010000C948A000C948A000C948A000C948A0038
:100020000C948A000C948A000C948A000C948A0028
:100030000C948A000C948A000C948A000C948A0018
:100040000C9440030C948A000C942E010C948A00AA
:100050000C948A000C948A000C948A000C948A00F8
:100060000C948A000C948A000000000024002700F1
:100070002A0000000000250028002B0000000000DE
:1000800023002600290004040404040404040202DA
:100090000202020203030303030301020408102007
:1000A0004080010204081020010204081020000012
:1000B0000007000201000003040600000000000029
:1000C0000000230211241FBECFEFD8E0DEBFCDBF5A
:1000D00011E0A0E0B1E0EAEDF9E002C005900D9278
:1000E000AC30B107D9F711E0ACE0B1E001C01D922E
:1000F000AC3BB107E1F710E0C4ECD0E004C02297BC
:10010000FE010E94E704C23CD107C9F70E94270103
:100110000C94EB040C94000080910001909101017B
:10012000C19759F48091020161E00E94340481E09A
:1001300090E09093050180930401809100019091DB
:100140000101C09749F48091020160E00E943404EB
:10015000109205011092040180910001909101011B
:10016000C29741F460910401709105018EE991E01C
:100170000E94300308958EE991E00E94D401882303
:1001800009F451C08EE991E00E94E80190930D01BD
:1001900080930C010A9709F046C010921901109241
:1001A00018011FC08EE991E00E94D4018823C9F094
:1001B0008EE991E00E94E8019C0190930D018093EB
:1001C0000C018D309105A1F08091180190911901D9
:1001D000FC01E25FFE4F208301969093190180930A
:1001E0001801809118019091190118161906D4F67A
:1001F0008091180190911901019759F480910E0195
:10020000992787FD909590930101809300010E94AA
:100210008C00109219011092180162E370E080E0E6
:1002200090E00E94B00308958091020161E00E9475
:1002300014048EE991E040E855E260E070E00E942D
:100240006B018091020161E00E94340408950E94D4
:10025000DA030E9414010E94BB00FDCF1F920F928F
:100260000FB60F9211242F933F934F935F936F9389
:100270007F938F939F93AF93BF93EF93FF9340919F
:10028000C600E0919A01F0919B01CF01019660E8D0
:1002900070E00E9481049C0180919C0190919D01DD
:1002A0002817390739F0E65EFE4F408330939B01F3
:1002B00020939A01FF91EF91BF91AF919F918F9100
:1002C0007F916F915F914F913F912F910F900FBE52
:1002D0000F901F901895AF92BF92CF92DF92EF923E
:1002E000FF920F931F93CF93DF936C017A018B01E1
:1002F000DC011496AD90BC901597CB01BA0122E0B9
:1003000030E040E050E00E94B604205C3D4B404F9E
:100310005F4FCA01B901A80197010E94B604C90143
:10032000DA010197A109B109292F3A2F4B2F55273F
:1003300047FD5A950196A11DB11DE5012883E601EF
:10034000EE81FF8181508083EA85FB85208141E039
:1003500050E0CA010E8402C0880F991F0A94E2F788
:10036000282B2083EA85FB852081CA010F8402C0E7
:10037000880F991F0A94E2F7282B2083EA85FB85D2
:100380008081088802C0440F551F0A94E2F7842B2D
:100390008083DF91CF911F910F91FF90EF90DF90BD
:1003A000CF90BF90AF900895DC011296ED91FC9133
:1003B0001397E058FF4F8191919180589F4F208172
:1003C0003181821B930B60E870E00E9481040895E4
:1003D000CF93DF93DC011296ED91FC911397EF011F
:1003E000CE57DF4F48815981E058FF4F808191817E
:1003F000E058F0408417950719F42FEF3FEF0CC039
:10040000E40FF51F2081CA01019660E870E00E94A8
:1004100081049983888330E0C901DF91CF910895E9
:10042000FC01A085B18521898C9190E0022E02C04B
:10043000959587950A94E2F780FFF6CF0484F585B9
:10044000E02D608308958AE091E090939F0180936E
:100450009E018AE191E09093A1018093A00185EC37
:1004600090E09093A3018093A20184EC90E090939C
:10047000A5018093A40180EC90E09093A701809364
:10048000A60181EC90E09093A9018093A80186ECED
:1004900090E09093AB018093AA0184E08093AC013B
:1004A00083E08093AD0187E08093AE0185E0809387
:1004B000AF0108950F931F938C01DC01ED91FC9126
:1004C0000190F081E02D6DE00995D801ED91FC914E
:1004D0000190F081E02DC8016AE009951F910F910C
:1004E00008952F923F924F925F926F927F928F92D8
:1004F0009F92AF92BF92CF92DF92EF92FF920F93B3
:100500001F93DF93CF93CDB7DEB7A0970FB6F894C4
:10051000DEBF0FBECDBF1C016A017B014115510535
:100520006105710549F4DC01ED91FC910190F081C8
:10053000E02D60E3099554C0882499245401422E8B
:1005400055246624772401E010E00C0F1D1F080DD0
:10055000191DC701B601A30192010E949404F8017C
:1005600060830894811C911CA11CB11CC701B601B9
:10057000A30192010E949404C901DA016C017D017A
:10058000C114D104E104F104F1F681E0E82EF12C6C
:10059000EC0EFD1EE80CF91C3E010894611C711C58
:1005A000D501C4010197A109B1096C01C818D90886
:1005B00014C0F601EE0DFF1D60816A3010F4605D1D
:1005C00001C0695CD101ED91FC910190F081E02DB9
:1005D000C10109950894E108F1086E147F0449F7F8
:1005E000A0960FB6F894DEBF0FBECDBFCF91DF91BE
:1005F0001F910F91FF90EF90DF90CF90BF90AF9041
:100600009F908F907F906F905F904F903F902F9032
:100610000895EF92FF920F931F93CF93DF93EC0116
:100620007A018B0177FF0FC0E881F9810190F08199
:10063000E02D6DE2099510950095F094E094E11C91
:10064000F11C011D111DCE01B801A7012AE00E9475
:100650007102DF91CF911F910F91FF90EF9008955C
:100660000F931F938C01AB01662757FD6095762F82
:100670000E940903C8010E945A021F910F91089518
:100680001F920F920FB60F9211242F938F939F9367
:10069000AF93BF938091B0019091B101A091B2014D
:1006A000B091B3010196A11DB11D8093B00190934B
:1006B000B101A093B201B093B3018091B4019091C4
:1006C000B501A091B601B091B7018050904CAF4FE9
:1006D000BF4F8093B4019093B501A093B601B0933E
:1006E000B70127C08091B4019091B501A091B601E6
:1006F000B091B70180589E43A040B0408093B401B0
:100700009093B501A093B601B093B7018091B80161
:100710009091B901A091BA01B091BB010196A11DC0
:10072000B11D8093B8019093B901A093BA01B09321
:10073000BB018091B4019091B501A091B601B09137
:10074000B70181589E43A040B04060F6BF91AF9181
:100750009F918F912F910F900FBE0F901F90189522
:10076000EF92FF920F931F937B018C018FB7F89448
:100770004091B8015091B9016091BA017091BB01EB
:100780008FBF2FB7F8948091B8019091B901A091D3
:10079000BA01B091BB012FBF841B950BA60BB70B01
:1007A000E816F9060A071B0760F71F910F91FF90E3
:1007B000EF900895789484B5826084BD84B581609B
:1007C00084BD85B5826085BD85B5816085BDEEE659
:1007D000F0E0808181608083E1E8F0E080818260E8
:1007E0008083808181608083E0E8F0E080818160A7
:1007F0008083E1EBF0E0808184608083E0EBF0E0D7
:10080000808181608083EAE7F0E08081846080837A
:100810008081826080838081816080838081806824
:1008200080831092C1000895282F30E0C9018656B8
:100830009F4FFC0194912A573F4FF90184918823DF
:1008400091F0E82FF0E0EE0FFF1FE859FF4FA59160
:10085000B491662329F48C91909589238C93089503
:100860008C91892B8C930895482F50E0CA018255B2
:100870009F4FFC012491CA0186569F4FFC01949121
:100880004A575F4FFA0134913323D1F1222331F1DA
:10089000233021F4809180008F7705C0243031F41B
:1008A000809180008F7D8093800018C0213019F4E2
:1008B00084B58F7704C0223021F484B58F7D84BD48
:1008C0000DC0263021F48091B0008F7705C027300D
:1008D00029F48091B0008F7D8093B000E32FF0E089
:1008E000EE0FFF1FEE58FF4FA591B491662329F438
:1008F0008C91909589238C9308958C91892B8C935E
:10090000089597FB092E07260AD077FD04D049D019
:1009100006D000201AF4709561957F4F0895F6F780
:10092000909581959F4F0895A1E21A2EAA1BBB1B9B
:10093000FD010DC0AA1FBB1FEE1FFF1FA217B307AB
:10094000E407F50720F0A21BB30BE40BF50B661FC1
:10095000771F881F991F1A9469F760957095809585
:1009600090959B01AC01BD01CF01089597FB092E25
:1009700005260ED057FD04D0D7DF0AD0001C38F46E
:1009800050954095309521953F4F4F4F5F4F0895BB
:10099000F6F790958095709561957F4F8F4F9F4F9B
:1009A0000895AA1BBB1B51E107C0AA1FBB1FA617B6
:1009B000B70710F0A61BB70B881F991F5A95A9F708
:1009C00080959095BC01CD010895EE0FFF1F059015
:0A09D000F491E02D0994F894FFCF94
:0C09DA00FFFF0D000100000000001002F3
:00000001FF
